{
  "_format": "hh-sol-artifact-1",
  "contractName": "Counter",
  "sourceName": "contracts/Counter.sol",
  "abi": [
    {
      "inputs": [],
      "name": "count",
      "outputs": [
        {
          "internalType": "uint256",
          "name": "",
          "type": "uint256"
        }
      ],
      "stateMutability": "nonpayable",
      "type": "function"
    }
  ],
  "bytecode": "0x608060405234801561001057600080fd5b5061034a806100206000396000f3fe608060405234801561001057600080fd5b506004361061002b5760003560e01c806306661abd14610030575b600080fd5b61003861004e565b60405161004591906101ca565b60405180910390f35b600080600081819054906101000a900460ff168092919061006e90610221565b91906101000a81548160ff021916908360ff160217905550506100d66040518060400160405280600e81526020017f436f756e746572206973206e6f7700000000000000000000000000000000000081525060008054906101000a900460ff1660ff166100ec565b60008054906101000a900460ff1660ff16905090565b61018482826040516024016101029291906102e4565b6040516020818303038152906040527f9710a9d0000000000000000000000000000000000000000000000000000000007bffffffffffffffffffffffffffffffffffffffffffffffffffffffff19166020820180517bffffffffffffffffffffffffffffffffffffffffffffffffffffffff8381831617835250505050610188565b5050565b60008151905060006a636f6e736f6c652e6c6f679050602083016000808483855afa5050505050565b6000819050919050565b6101c4816101b1565b82525050565b60006020820190506101df60008301846101bb565b92915050565b7f4e487b7100000000000000000000000000000000000000000000000000000000600052601160045260246000fd5b600060ff82169050919050565b600061022c82610214565b915060ff8214156102405761023f6101e5565b5b600182019050919050565b600081519050919050565b600082825260208201905092915050565b60005b8381101561028557808201518184015260208101905061026a565b83811115610294576000848401525b50505050565b6000601f19601f8301169050919050565b60006102b68261024b565b6102c08185610256565b93506102d0818560208601610267565b6102d98161029a565b840191505092915050565b600060408201905081810360008301526102fe81856102ab565b905061030d60208301846101bb565b939250505056fea2646970667358221220a28ed3de3bb72463c40045d6f5fbf2970b6359705e039ac9ee83ca7dd9a12ffa64736f6c634300080a0033",
  "linkReferences": {},
  "deployedLinkReferences": {}
}